{
  "_format": "hh-sol-artifact-1",
  "contractName": "CollegeToken",
  "sourceName": "contracts/collegeToken.sol",
  "abi": [
    {
      "inputs": [
        {
          "internalType": "uint256",
          "name": "cap",
          "type": "uint256"
        },
        {
          "internalType": "uint256",
          "name": "reward",
          "type": "uint256"
        }
      ],
      "stateMutability": "nonpayable",
      "type": "constructor"
    },
    {
      "anonymous": false,
      "inputs": [
        {
          "indexed": true,
          "internalType": "address",
          "name": "owner",
          "type": "address"
        },
        {
          "indexed": true,
          "internalType": "address",
          "name": "spender",
          "type": "address"
        },
        {
          "indexed": false,
          "internalType": "uint256",
          "name": "value",
          "type": "uint256"
        }
      ],
      "name": "Approval",
      "type": "event"
    },
    {
      "anonymous": false,
      "inputs": [
        {
          "indexed": true,
          "internalType": "address",
          "name": "from",
          "type": "address"
        },
        {
          "indexed": true,
          "internalType": "address",
          "name": "to",
          "type": "address"
        },
        {
          "indexed": false,
          "internalType": "uint256",
          "name": "value",
          "type": "uint256"
        }
      ],
      "name": "Transfer",
      "type": "event"
    },
    {
      "inputs": [
        {
          "internalType": "address",
          "name": "owner",
          "type": "address"
        },
        {
          "internalType": "address",
          "name": "spender",
          "type": "address"
        }
      ],
      "name": "allowance",
      "outputs": [
        {
          "internalType": "uint256",
          "name": "",
          "type": "uint256"
        }
      ],
      "stateMutability": "view",
      "type": "function"
    },
    {
      "inputs": [
        {
          "internalType": "address",
          "name": "spender",
          "type": "address"
        },
        {
          "internalType": "uint256",
          "name": "amount",
          "type": "uint256"
        }
      ],
      "name": "approve",
      "outputs": [
        {
          "internalType": "bool",
          "name": "",
          "type": "bool"
        }
      ],
      "stateMutability": "nonpayable",
      "type": "function"
    },
    {
      "inputs": [
        {
          "internalType": "address",
          "name": "account",
          "type": "address"
        }
      ],
      "name": "balanceOf",
      "outputs": [
        {
          "internalType": "uint256",
          "name": "",
          "type": "uint256"
        }
      ],
      "stateMutability": "view",
      "type": "function"
    },
    {
      "inputs": [],
      "name": "blockReward",
      "outputs": [
        {
          "internalType": "uint256",
          "name": "",
          "type": "uint256"
        }
      ],
      "stateMutability": "view",
      "type": "function"
    },
    {
      "inputs": [
        {
          "internalType": "uint256",
          "name": "amount",
          "type": "uint256"
        }
      ],
      "name": "burn",
      "outputs": [],
      "stateMutability": "nonpayable",
      "type": "function"
    },
    {
      "inputs": [
        {
          "internalType": "address",
          "name": "account",
          "type": "address"
        },
        {
          "internalType": "uint256",
          "name": "amount",
          "type": "uint256"
        }
      ],
      "name": "burnFrom",
      "outputs": [],
      "stateMutability": "nonpayable",
      "type": "function"
    },
    {
      "inputs": [],
      "name": "cap",
      "outputs": [
        {
          "internalType": "uint256",
          "name": "",
          "type": "uint256"
        }
      ],
      "stateMutability": "view",
      "type": "function"
    },
    {
      "inputs": [],
      "name": "decimals",
      "outputs": [
        {
          "internalType": "uint8",
          "name": "",
          "type": "uint8"
        }
      ],
      "stateMutability": "view",
      "type": "function"
    },
    {
      "inputs": [
        {
          "internalType": "address",
          "name": "spender",
          "type": "address"
        },
        {
          "internalType": "uint256",
          "name": "subtractedValue",
          "type": "uint256"
        }
      ],
      "name": "decreaseAllowance",
      "outputs": [
        {
          "internalType": "bool",
          "name": "",
          "type": "bool"
        }
      ],
      "stateMutability": "nonpayable",
      "type": "function"
    },
    {
      "inputs": [],
      "name": "destroy",
      "outputs": [],
      "stateMutability": "nonpayable",
      "type": "function"
    },
    {
      "inputs": [
        {
          "internalType": "address",
          "name": "spender",
          "type": "address"
        },
        {
          "internalType": "uint256",
          "name": "addedValue",
          "type": "uint256"
        }
      ],
      "name": "increaseAllowance",
      "outputs": [
        {
          "internalType": "bool",
          "name": "",
          "type": "bool"
        }
      ],
      "stateMutability": "nonpayable",
      "type": "function"
    },
    {
      "inputs": [],
      "name": "name",
      "outputs": [
        {
          "internalType": "string",
          "name": "",
          "type": "string"
        }
      ],
      "stateMutability": "view",
      "type": "function"
    },
    {
      "inputs": [],
      "name": "owner",
      "outputs": [
        {
          "internalType": "address payable",
          "name": "",
          "type": "address"
        }
      ],
      "stateMutability": "view",
      "type": "function"
    },
    {
      "inputs": [
        {
          "internalType": "uint256",
          "name": "reward",
          "type": "uint256"
        }
      ],
      "name": "setBlockReward",
      "outputs": [],
      "stateMutability": "nonpayable",
      "type": "function"
    },
    {
      "inputs": [],
      "name": "symbol",
      "outputs": [
        {
          "internalType": "string",
          "name": "",
          "type": "string"
        }
      ],
      "stateMutability": "view",
      "type": "function"
    },
    {
      "inputs": [],
      "name": "totalSupply",
      "outputs": [
        {
          "internalType": "uint256",
          "name": "",
          "type": "uint256"
        }
      ],
      "stateMutability": "view",
      "type": "function"
    },
    {
      "inputs": [
        {
          "internalType": "address",
          "name": "to",
          "type": "address"
        },
        {
          "internalType": "uint256",
          "name": "amount",
          "type": "uint256"
        }
      ],
      "name": "transfer",
      "outputs": [
        {
          "internalType": "bool",
          "name": "",
          "type": "bool"
        }
      ],
      "stateMutability": "nonpayable",
      "type": "function"
    },
    {
      "inputs": [
        {
          "internalType": "address",
          "name": "from",
          "type": "address"
        },
        {
          "internalType": "address",
          "name": "to",
          "type": "address"
        },
        {
          "internalType": "uint256",
          "name": "amount",
          "type": "uint256"
        }
      ],
      "name": "transferFrom",
      "outputs": [
        {
          "internalType": "bool",
          "name": "",
          "type": "bool"
        }
      ],
      "stateMutability": "nonpayable",
      "type": "function"
    }
  ],
  "bytecode": "0x60a06040523480156200001157600080fd5b50604051620028b6380380620028b683398181016040528101906200003791906200058d565b670de0b6b3a7640000826200004d919062000603565b6040518060400160405280600c81526020017f436f6c6c656765546f6b656e00000000000000000000000000000000000000008152506040518060400160405280600281526020017f43540000000000000000000000000000000000000000000000000000000000008152508160039081620000ca9190620008be565b508060049081620000dc9190620008be565b5050506000811162000125576040517f08c379a00000000000000000000000000000000000000000000000000000000081526004016200011c9062000a06565b60405180910390fd5b80608081815250505033600560006101000a81548173ffffffffffffffffffffffffffffffffffffffff021916908373ffffffffffffffffffffffffffffffffffffffff160217905550620001ae600560009054906101000a900473ffffffffffffffffffffffffffffffffffffffff166a39e7139a8c08fa06000000620001cb60201b60201c565b60b481620001bd919062000603565b600681905550505062000b75565b620001db6200025260201b60201c565b81620001ec6200025c60201b60201c565b620001f8919062000a28565b11156200023c576040517f08c379a0000000000000000000000000000000000000000000000000000000008152600401620002339062000ab3565b60405180910390fd5b6200024e82826200026660201b60201c565b5050565b6000608051905090565b6000600254905090565b620002766200025260201b60201c565b81620002876200025c60201b60201c565b62000293919062000a28565b1115620002d7576040517f08c379a0000000000000000000000000000000000000000000000000000000008152600401620002ce9062000ab3565b60405180910390fd5b620002e98282620002ed60201b60201c565b5050565b600073ffffffffffffffffffffffffffffffffffffffff168273ffffffffffffffffffffffffffffffffffffffff16036200035f576040517f08c379a0000000000000000000000000000000000000000000000000000000008152600401620003569062000b25565b60405180910390fd5b62000373600083836200045a60201b60201c565b806002600082825462000387919062000a28565b92505081905550806000808473ffffffffffffffffffffffffffffffffffffffff1673ffffffffffffffffffffffffffffffffffffffff168152602001908152602001600020600082825401925050819055508173ffffffffffffffffffffffffffffffffffffffff16600073ffffffffffffffffffffffffffffffffffffffff167fddf252ad1be2c89b69c2b068fc378daa952ba7f163c4a11628f55a4df523b3ef836040516200043a919062000b58565b60405180910390a362000456600083836200052d60201b60201c565b5050565b600073ffffffffffffffffffffffffffffffffffffffff168373ffffffffffffffffffffffffffffffffffffffff1614158015620004c457504173ffffffffffffffffffffffffffffffffffffffff168273ffffffffffffffffffffffffffffffffffffffff1614155b8015620004fe5750600073ffffffffffffffffffffffffffffffffffffffff164173ffffffffffffffffffffffffffffffffffffffff1614155b156200051557620005146200053260201b60201c565b5b620005288383836200054860201b60201c565b505050565b505050565b6200054641600654620001cb60201b60201c565b565b505050565b600080fd5b6000819050919050565b620005678162000552565b81146200057357600080fd5b50565b60008151905062000587816200055c565b92915050565b60008060408385031215620005a757620005a66200054d565b5b6000620005b78582860162000576565b9250506020620005ca8582860162000576565b9150509250929050565b7f4e487b7100000000000000000000000000000000000000000000000000000000600052601160045260246000fd5b6000620006108262000552565b91506200061d8362000552565b92508282026200062d8162000552565b91508282048414831517620006475762000646620005d4565b5b5092915050565b600081519050919050565b7f4e487b7100000000000000000000000000000000000000000000000000000000600052604160045260246000fd5b7f4e487b7100000000000000000000000000000000000000000000000000000000600052602260045260246000fd5b60006002820490506001821680620006d057607f821691505b602082108103620006e657620006e562000688565b5b50919050565b60008190508160005260206000209050919050565b60006020601f8301049050919050565b600082821b905092915050565b600060088302620007507fffffffffffffffffffffffffffffffffffffffffffffffffffffffffffffffff8262000711565b6200075c868362000711565b95508019841693508086168417925050509392505050565b6000819050919050565b60006200079f62000799620007938462000552565b62000774565b62000552565b9050919050565b6000819050919050565b620007bb836200077e565b620007d3620007ca82620007a6565b8484546200071e565b825550505050565b600090565b620007ea620007db565b620007f7818484620007b0565b505050565b5b818110156200081f5762000813600082620007e0565b600181019050620007fd565b5050565b601f8211156200086e576200083881620006ec565b620008438462000701565b8101602085101562000853578190505b6200086b620008628562000701565b830182620007fc565b50505b505050565b600082821c905092915050565b6000620008936000198460080262000873565b1980831691505092915050565b6000620008ae838362000880565b9150826002028217905092915050565b620008c9826200064e565b67ffffffffffffffff811115620008e557620008e462000659565b5b620008f18254620006b7565b620008fe82828562000823565b600060209050601f83116001811462000936576000841562000921578287015190505b6200092d8582620008a0565b8655506200099d565b601f1984166200094686620006ec565b60005b82811015620009705784890151825560018201915060208501945060208101905062000949565b868310156200099057848901516200098c601f89168262000880565b8355505b6001600288020188555050505b505050505050565b600082825260208201905092915050565b7f45524332304361707065643a2063617020697320300000000000000000000000600082015250565b6000620009ee601583620009a5565b9150620009fb82620009b6565b602082019050919050565b6000602082019050818103600083015262000a2181620009df565b9050919050565b600062000a358262000552565b915062000a428362000552565b925082820190508082111562000a5d5762000a5c620005d4565b5b92915050565b7f45524332304361707065643a2063617020657863656564656400000000000000600082015250565b600062000a9b601983620009a5565b915062000aa88262000a63565b602082019050919050565b6000602082019050818103600083015262000ace8162000a8c565b9050919050565b7f45524332303a206d696e7420746f20746865207a65726f206164647265737300600082015250565b600062000b0d601f83620009a5565b915062000b1a8262000ad5565b602082019050919050565b6000602082019050818103600083015262000b408162000afe565b9050919050565b62000b528162000552565b82525050565b600060208201905062000b6f600083018462000b47565b92915050565b608051611d2562000b9160003960006105420152611d256000f3fe608060405234801561001057600080fd5b50600436106101165760003560e01c806342966c68116100a25780638da5cb5b116100715780638da5cb5b146102cf57806395d89b41146102ed578063a457c2d71461030b578063a9059cbb1461033b578063dd62ed3e1461036b57610116565b806342966c681461025d57806370a082311461027957806379cc6790146102a957806383197ef0146102c557610116565b80631a18e707116100e95780631a18e707146101a557806323b872dd146101c1578063313ce567146101f1578063355274ea1461020f578063395093511461022d57610116565b806306fdde031461011b578063095ea7b3146101395780630ac168a11461016957806318160ddd14610187575b600080fd5b61012361039b565b60405161013091906112ef565b60405180910390f35b610153600480360381019061014e91906113aa565b61042d565b6040516101609190611405565b60405180910390f35b610171610450565b60405161017e919061142f565b60405180910390f35b61018f610456565b60405161019c919061142f565b60405180910390f35b6101bf60048036038101906101ba919061144a565b610460565b005b6101db60048036038101906101d69190611477565b610506565b6040516101e89190611405565b60405180910390f35b6101f9610535565b60405161020691906114e6565b60405180910390f35b61021761053e565b604051610224919061142f565b60405180910390f35b610247600480360381019061024291906113aa565b610566565b6040516102549190611405565b60405180910390f35b6102776004803603810190610272919061144a565b61059d565b005b610293600480360381019061028e9190611501565b6105b1565b6040516102a0919061142f565b60405180910390f35b6102c360048036038101906102be91906113aa565b6105f9565b005b6102cd610619565b005b6102d76106e4565b6040516102e4919061154f565b60405180910390f35b6102f561070a565b60405161030291906112ef565b60405180910390f35b610325600480360381019061032091906113aa565b61079c565b6040516103329190611405565b60405180910390f35b610355600480360381019061035091906113aa565b610813565b6040516103629190611405565b60405180910390f35b6103856004803603810190610380919061156a565b610836565b604051610392919061142f565b60405180910390f35b6060600380546103aa906115d9565b80601f01602080910402602001604051908101604052809291908181526020018280546103d6906115d9565b80156104235780601f106103f857610100808354040283529160200191610423565b820191906000526020600020905b81548152906001019060200180831161040657829003601f168201915b5050505050905090565b6000806104386108bd565b90506104458185856108c5565b600191505092915050565b60065481565b6000600254905090565b600560009054906101000a900473ffffffffffffffffffffffffffffffffffffffff1673ffffffffffffffffffffffffffffffffffffffff163373ffffffffffffffffffffffffffffffffffffffff16146104f0576040517f08c379a00000000000000000000000000000000000000000000000000000000081526004016104e790611656565b60405180910390fd5b60b4816104fd91906116a5565b60068190555050565b6000806105116108bd565b905061051e858285610a8e565b610529858585610b1a565b60019150509392505050565b60006012905090565b60007f0000000000000000000000000000000000000000000000000000000000000000905090565b6000806105716108bd565b90506105928185856105838589610836565b61058d91906116e7565b6108c5565b600191505092915050565b6105ae6105a86108bd565b82610d90565b50565b60008060008373ffffffffffffffffffffffffffffffffffffffff1673ffffffffffffffffffffffffffffffffffffffff168152602001908152602001600020549050919050565b61060b826106056108bd565b83610a8e565b6106158282610d90565b5050565b600560009054906101000a900473ffffffffffffffffffffffffffffffffffffffff1673ffffffffffffffffffffffffffffffffffffffff163373ffffffffffffffffffffffffffffffffffffffff16146106a9576040517f08c379a00000000000000000000000000000000000000000000000000000000081526004016106a090611656565b60405180910390fd5b600560009054906101000a900473ffffffffffffffffffffffffffffffffffffffff1673ffffffffffffffffffffffffffffffffffffffff16ff5b600560009054906101000a900473ffffffffffffffffffffffffffffffffffffffff1681565b606060048054610719906115d9565b80601f0160208091040260200160405190810160405280929190818152602001828054610745906115d9565b80156107925780601f1061076757610100808354040283529160200191610792565b820191906000526020600020905b81548152906001019060200180831161077557829003601f168201915b5050505050905090565b6000806107a76108bd565b905060006107b58286610836565b9050838110156107fa576040517f08c379a00000000000000000000000000000000000000000000000000000000081526004016107f19061178d565b60405180910390fd5b61080782868684036108c5565b60019250505092915050565b60008061081e6108bd565b905061082b818585610b1a565b600191505092915050565b6000600160008473ffffffffffffffffffffffffffffffffffffffff1673ffffffffffffffffffffffffffffffffffffffff16815260200190815260200160002060008373ffffffffffffffffffffffffffffffffffffffff1673ffffffffffffffffffffffffffffffffffffffff16815260200190815260200160002054905092915050565b600033905090565b600073ffffffffffffffffffffffffffffffffffffffff168373ffffffffffffffffffffffffffffffffffffffff1603610934576040517f08c379a000000000000000000000000000000000000000000000000000000000815260040161092b9061181f565b60405180910390fd5b600073ffffffffffffffffffffffffffffffffffffffff168273ffffffffffffffffffffffffffffffffffffffff16036109a3576040517f08c379a000000000000000000000000000000000000000000000000000000000815260040161099a906118b1565b60405180910390fd5b80600160008573ffffffffffffffffffffffffffffffffffffffff1673ffffffffffffffffffffffffffffffffffffffff16815260200190815260200160002060008473ffffffffffffffffffffffffffffffffffffffff1673ffffffffffffffffffffffffffffffffffffffff168152602001908152602001600020819055508173ffffffffffffffffffffffffffffffffffffffff168373ffffffffffffffffffffffffffffffffffffffff167f8c5be1e5ebec7d5bd14f71427d1e84f3dd0314c0f7b2291e5b200ac8c7c3b92583604051610a81919061142f565b60405180910390a3505050565b6000610a9a8484610836565b90507fffffffffffffffffffffffffffffffffffffffffffffffffffffffffffffffff8114610b145781811015610b06576040517f08c379a0000000000000000000000000000000000000000000000000000000008152600401610afd9061191d565b60405180910390fd5b610b1384848484036108c5565b5b50505050565b600073ffffffffffffffffffffffffffffffffffffffff168373ffffffffffffffffffffffffffffffffffffffff1603610b89576040517f08c379a0000000000000000000000000000000000000000000000000000000008152600401610b80906119af565b60405180910390fd5b600073ffffffffffffffffffffffffffffffffffffffff168273ffffffffffffffffffffffffffffffffffffffff1603610bf8576040517f08c379a0000000000000000000000000000000000000000000000000000000008152600401610bef90611a41565b60405180910390fd5b610c03838383610f5d565b60008060008573ffffffffffffffffffffffffffffffffffffffff1673ffffffffffffffffffffffffffffffffffffffff16815260200190815260200160002054905081811015610c89576040517f08c379a0000000000000000000000000000000000000000000000000000000008152600401610c8090611ad3565b60405180910390fd5b8181036000808673ffffffffffffffffffffffffffffffffffffffff1673ffffffffffffffffffffffffffffffffffffffff16815260200190815260200160002081905550816000808573ffffffffffffffffffffffffffffffffffffffff1673ffffffffffffffffffffffffffffffffffffffff168152602001908152602001600020600082825401925050819055508273ffffffffffffffffffffffffffffffffffffffff168473ffffffffffffffffffffffffffffffffffffffff167fddf252ad1be2c89b69c2b068fc378daa952ba7f163c4a11628f55a4df523b3ef84604051610d77919061142f565b60405180910390a3610d8a84848461101d565b50505050565b600073ffffffffffffffffffffffffffffffffffffffff168273ffffffffffffffffffffffffffffffffffffffff1603610dff576040517f08c379a0000000000000000000000000000000000000000000000000000000008152600401610df690611b65565b60405180910390fd5b610e0b82600083610f5d565b60008060008473ffffffffffffffffffffffffffffffffffffffff1673ffffffffffffffffffffffffffffffffffffffff16815260200190815260200160002054905081811015610e91576040517f08c379a0000000000000000000000000000000000000000000000000000000008152600401610e8890611bf7565b60405180910390fd5b8181036000808573ffffffffffffffffffffffffffffffffffffffff1673ffffffffffffffffffffffffffffffffffffffff1681526020019081526020016000208190555081600260008282540392505081905550600073ffffffffffffffffffffffffffffffffffffffff168373ffffffffffffffffffffffffffffffffffffffff167fddf252ad1be2c89b69c2b068fc378daa952ba7f163c4a11628f55a4df523b3ef84604051610f44919061142f565b60405180910390a3610f588360008461101d565b505050565b600073ffffffffffffffffffffffffffffffffffffffff168373ffffffffffffffffffffffffffffffffffffffff1614158015610fc657504173ffffffffffffffffffffffffffffffffffffffff168273ffffffffffffffffffffffffffffffffffffffff1614155b8015610fff5750600073ffffffffffffffffffffffffffffffffffffffff164173ffffffffffffffffffffffffffffffffffffffff1614155b1561100d5761100c611022565b5b611018838383611030565b505050565b505050565b61102e41600654611035565b565b505050565b61103d61053e565b81611046610456565b61105091906116e7565b1115611091576040517f08c379a000000000000000000000000000000000000000000000000000000000815260040161108890611c63565b60405180910390fd5b61109b828261109f565b5050565b6110a761053e565b816110b0610456565b6110ba91906116e7565b11156110fb576040517f08c379a00000000000000000000000000000000000000000000000000000000081526004016110f290611c63565b60405180910390fd5b6111058282611109565b5050565b600073ffffffffffffffffffffffffffffffffffffffff168273ffffffffffffffffffffffffffffffffffffffff1603611178576040517f08c379a000000000000000000000000000000000000000000000000000000000815260040161116f90611ccf565b60405180910390fd5b61118460008383610f5d565b806002600082825461119691906116e7565b92505081905550806000808473ffffffffffffffffffffffffffffffffffffffff1673ffffffffffffffffffffffffffffffffffffffff168152602001908152602001600020600082825401925050819055508173ffffffffffffffffffffffffffffffffffffffff16600073ffffffffffffffffffffffffffffffffffffffff167fddf252ad1be2c89b69c2b068fc378daa952ba7f163c4a11628f55a4df523b3ef83604051611247919061142f565b60405180910390a361125b6000838361101d565b5050565b600081519050919050565b600082825260208201905092915050565b60005b8381101561129957808201518184015260208101905061127e565b60008484015250505050565b6000601f19601f8301169050919050565b60006112c18261125f565b6112cb818561126a565b93506112db81856020860161127b565b6112e4816112a5565b840191505092915050565b6000602082019050818103600083015261130981846112b6565b905092915050565b600080fd5b600073ffffffffffffffffffffffffffffffffffffffff82169050919050565b600061134182611316565b9050919050565b61135181611336565b811461135c57600080fd5b50565b60008135905061136e81611348565b92915050565b6000819050919050565b61138781611374565b811461139257600080fd5b50565b6000813590506113a48161137e565b92915050565b600080604083850312156113c1576113c0611311565b5b60006113cf8582860161135f565b92505060206113e085828601611395565b9150509250929050565b60008115159050919050565b6113ff816113ea565b82525050565b600060208201905061141a60008301846113f6565b92915050565b61142981611374565b82525050565b60006020820190506114446000830184611420565b92915050565b6000602082840312156114605761145f611311565b5b600061146e84828501611395565b91505092915050565b6000806000606084860312156114905761148f611311565b5b600061149e8682870161135f565b93505060206114af8682870161135f565b92505060406114c086828701611395565b9150509250925092565b600060ff82169050919050565b6114e0816114ca565b82525050565b60006020820190506114fb60008301846114d7565b92915050565b60006020828403121561151757611516611311565b5b60006115258482850161135f565b91505092915050565b600061153982611316565b9050919050565b6115498161152e565b82525050565b60006020820190506115646000830184611540565b92915050565b6000806040838503121561158157611580611311565b5b600061158f8582860161135f565b92505060206115a08582860161135f565b9150509250929050565b7f4e487b7100000000000000000000000000000000000000000000000000000000600052602260045260246000fd5b600060028204905060018216806115f157607f821691505b602082108103611604576116036115aa565b5b50919050565b7f4f6e6c79204f776e65722063616e206368616e67652072657761726400000000600082015250565b6000611640601c8361126a565b915061164b8261160a565b602082019050919050565b6000602082019050818103600083015261166f81611633565b9050919050565b7f4e487b7100000000000000000000000000000000000000000000000000000000600052601160045260246000fd5b60006116b082611374565b91506116bb83611374565b92508282026116c981611374565b915082820484148315176116e0576116df611676565b5b5092915050565b60006116f282611374565b91506116fd83611374565b925082820190508082111561171557611714611676565b5b92915050565b7f45524332303a2064656372656173656420616c6c6f77616e63652062656c6f7760008201527f207a65726f000000000000000000000000000000000000000000000000000000602082015250565b600061177760258361126a565b91506117828261171b565b604082019050919050565b600060208201905081810360008301526117a68161176a565b9050919050565b7f45524332303a20617070726f76652066726f6d20746865207a65726f2061646460008201527f7265737300000000000000000000000000000000000000000000000000000000602082015250565b600061180960248361126a565b9150611814826117ad565b604082019050919050565b60006020820190508181036000830152611838816117fc565b9050919050565b7f45524332303a20617070726f766520746f20746865207a65726f20616464726560008201527f7373000000000000000000000000000000000000000000000000000000000000602082015250565b600061189b60228361126a565b91506118a68261183f565b604082019050919050565b600060208201905081810360008301526118ca8161188e565b9050919050565b7f45524332303a20696e73756666696369656e7420616c6c6f77616e6365000000600082015250565b6000611907601d8361126a565b9150611912826118d1565b602082019050919050565b60006020820190508181036000830152611936816118fa565b9050919050565b7f45524332303a207472616e736665722066726f6d20746865207a65726f20616460008201527f6472657373000000000000000000000000000000000000000000000000000000602082015250565b600061199960258361126a565b91506119a48261193d565b604082019050919050565b600060208201905081810360008301526119c88161198c565b9050919050565b7f45524332303a207472616e7366657220746f20746865207a65726f206164647260008201527f6573730000000000000000000000000000000000000000000000000000000000602082015250565b6000611a2b60238361126a565b9150611a36826119cf565b604082019050919050565b60006020820190508181036000830152611a5a81611a1e565b9050919050565b7f45524332303a207472616e7366657220616d6f756e742065786365656473206260008201527f616c616e63650000000000000000000000000000000000000000000000000000602082015250565b6000611abd60268361126a565b9150611ac882611a61565b604082019050919050565b60006020820190508181036000830152611aec81611ab0565b9050919050565b7f45524332303a206275726e2066726f6d20746865207a65726f2061646472657360008201527f7300000000000000000000000000000000000000000000000000000000000000602082015250565b6000611b4f60218361126a565b9150611b5a82611af3565b604082019050919050565b60006020820190508181036000830152611b7e81611b42565b9050919050565b7f45524332303a206275726e20616d6f756e7420657863656564732062616c616e60008201527f6365000000000000000000000000000000000000000000000000000000000000602082015250565b6000611be160228361126a565b9150611bec82611b85565b604082019050919050565b60006020820190508181036000830152611c1081611bd4565b9050919050565b7f45524332304361707065643a2063617020657863656564656400000000000000600082015250565b6000611c4d60198361126a565b9150611c5882611c17565b602082019050919050565b60006020820190508181036000830152611c7c81611c40565b9050919050565b7f45524332303a206d696e7420746f20746865207a65726f206164647265737300600082015250565b6000611cb9601f8361126a565b9150611cc482611c83565b602082019050919050565b60006020820190508181036000830152611ce881611cac565b905091905056fea264697066735822122035e96715e3d3e5811d136888faca4367ab53f728c421c945b3cb0427bb0a9c7264736f6c63430008130033",
  "linkReferences": {},
  "deployedLinkReferences": {}
}